S010000041756667616265322E7372656337
S11300000C943E000C945B000C945B000C945B001D
S11300100C9468000C945B000C945B000C945B00E3
S11300200C945B000C945B000C945B000C945B00E0
S11300300C945B000C945B000C945B000C945B00D0
S11300400C945B000C945B000C945B000C945B00C0
S11300500C945B000C945B000C945B000C945B00B0
S11300600C945B000C945B000C945B000C945B00A0
S11300700C945B000C945B000C945B0011241FBE79
S1130080CFEFD0E1DEBFCDBF11E0A0E0B1E0EAE206
S1130090F3E002C005900D92A230B107D9F721E038
S11300A0A2E0B1E001C01D92A830B207E1F70E94BE
S11300B0AE000C9493010C940000EBE6F0E0808118
S11300C089638083E8E6F0E080818160808308951D
S11300D01F920F920FB60F9211248F93CF93DF9339
S11300E01F92CDB7DEB780B189738983898181116D
S11300F029C080910001882341F181E080930301AC
S113010080910201803211F4109207018091020162
S1130110803151F480910701811103C081E0809303
S1130120070181E08093060180910201813011F47E
S11301308093050180910201883039F481E0809335
S1130140040103C08981809302010F90DF91CF9154
S11301508F910F900FBE0F901F901895F8940E94E6
S11301605D00789451E095E047E0ABE036E0FAE0DA
S1130170ECE024E072E063E080910701843009F44C
S113018049C028F4813061F0823051F1F5CF8630D6
S113019009F483C008F45EC0873009F4A1C0ECCF31
S11301A010920301809103018823E1F3109203016B
S11301B080910601811170930701809104018111DE
S11301C0209307018091050181112093070110926A
S11301D00601109205011092040110920301CCCF84
S11301E010920301809103018823E1F3109203012B
S11301F0809106018111609307018091040180912F
S1130200050110920601109205011092040110924A
S11302100301B2CF10920301809103018823E1F31B
S1130220109203018091060181119093070180913E
S113023004018111509307018091050181115093AC
S11302400701109206011092050110920401109208
S1130250030192CF10920301809103018823E1F3FB
S11302601092030180910601882321F0F09301018B
S1130270109207018091040181113093070180914C
S113028005018111409307011092060110920501A6
S113029010920401109203016FCF10920301809118
S11302A003018823E1F3109203018091060188235E
S11302B021F0A093010110920701809104018111A2
S11302C040930701809105018111909307011092D9
S11302D006011092050110920401109203014CCF03
S11302E010920301809103018823E1F3109203012A
S11302F080910601882321F0E09301011092070107
S1130300809104018111909307018091050181116D
S11303103093070110920601109205011092040116
S10D03201092030129CFF894FFCFD7
S105032A0105C7
S9030000FC
